{
    "contractName": "contract2",
    "abi": [
        {
            "inputs": [
                {
                    "internalType": "address",
                    "name": "",
                    "type": "address"
                },
                {
                    "internalType": "bytes32",
                    "name": "",
                    "type": "bytes32"
                }
            ],
            "name": "nested",
            "outputs": [
                {
                    "internalType": "bool",
                    "name": "",
                    "type": "bool"
                }
            ],
            "stateMutability": "view",
            "type": "function",
            "constant": true
        },
        {
            "inputs": [
                {
                    "internalType": "bytes32",
                    "name": "SongID1",
                    "type": "bytes32"
                }
            ],
            "name": "verifySong1",
            "outputs": [
                {
                    "internalType": "bool",
                    "name": "",
                    "type": "bool"
                }
            ],
            "stateMutability": "view",
            "type": "function",
            "constant": true
        },
        {
            "inputs": [
                {
                    "internalType": "bytes32",
                    "name": "SongID1",
                    "type": "bytes32"
                }
            ],
            "name": "addSong1",
            "outputs": [],
            "stateMutability": "payable",
            "type": "function",
            "payable": true
        },
        {
            "inputs": [
                {
                    "internalType": "address",
                    "name": "_addr",
                    "type": "address"
                },
                {
                    "internalType": "bytes32",
                    "name": "SongID1",
                    "type": "bytes32"
                }
            ],
            "name": "remove",
            "outputs": [],
            "stateMutability": "nonpayable",
            "type": "function"
        }
    ],
    "bytecode": "0x608060405234801561001057600080fd5b50610339806100206000396000f3fe60806040526004361061003f5760003560e01c80631a083a071461004457806364afab7214610095578063c60668d6146100f0578063df8fe7c01461011e575b600080fd5b34801561005057600080fd5b5061007d6004803603602081101561006757600080fd5b810190808035906020019092919050505061018f565b60405180821515815260200191505060405180910390f35b3480156100a157600080fd5b506100ee600480360360408110156100b857600080fd5b81019080803573ffffffffffffffffffffffffffffffffffffffff169060200190929190803590602001909291905050506101fa565b005b61011c6004803603602081101561010657600080fd5b810190808035906020019092919050505061025d565b005b34801561012a57600080fd5b506101776004803603604081101561014157600080fd5b81019080803573ffffffffffffffffffffffffffffffffffffffff169060200190929190803590602001909291905050506102d4565b60405180821515815260200191505060405180910390f35b6000803390506000808273ffffffffffffffffffffffffffffffffffffffff1673ffffffffffffffffffffffffffffffffffffffff168152602001908152602001600020600084815260200190815260200160002060009054906101000a900460ff16915050919050565b6000808373ffffffffffffffffffffffffffffffffffffffff1673ffffffffffffffffffffffffffffffffffffffff168152602001908152602001600020600082815260200190815260200160002060006101000a81549060ff02191690555050565b6000600190506000339050816000808373ffffffffffffffffffffffffffffffffffffffff1673ffffffffffffffffffffffffffffffffffffffff168152602001908152602001600020600085815260200190815260200160002060006101000a81548160ff021916908315150217905550505050565b60006020528160005260406000206020528060005260406000206000915091509054906101000a900460ff168156fea264697066735822122085d2a061af2c15250a564d4c4bf23ccdef521525ec9519f36a456cc4d84afae164736f6c63430007000033",
    "immutableReferences": {},
    "source": "// SPDX-License-Identifier: MIT\n\npragma solidity 0.7.0;\n\n\n\n\n    contract contract2 {\n\n  \nmapping(address => mapping(bytes32 => bool)) public nested;\n\nfunction verifySong1(bytes32 SongID1) public view returns (bool) {\n\n        address _addr;\n\n        _addr = msg.sender;\n\n        return nested[_addr][SongID1];\n    }\n\n    function addSong1(\n        bytes32 SongID1) public payable { \n        \n        bool _boo;\n        _boo = true;\n        address _addr;\n        _addr = msg.sender;\n\n     nested[_addr][SongID1] = _boo;\n     \n    }\n\n    function remove(address _addr, bytes32 SongID1) public {\n        delete nested[_addr][SongID1];\n    }\n\n    \n\n\n    \n\n    \n}",
    "sourcePath": "/Users/tannerdavis/GitHub/contract2/contracts/contract2.sol",
    "compiler": {
        "name": "solc",
        "version": "0.7.0+commit.9e61f92b.Emscripten.clang"
    },
    "schemaVersion": "3.4.3",
    "updatedAt": "2021-12-10T17:39:18.064Z",
    "networkType": "ethereum",
    "devdoc": {
        "kind": "dev",
        "methods": {},
        "version": 1
    },
    "userdoc": {
        "kind": "user",
        "methods": {},
        "version": 1
    }
}