{
  "contractName": "SongBook",
  "abi": [
    {
      "inputs": [],
      "stateMutability": "nonpayable",
      "type": "constructor"
    },
    {
      "anonymous": false,
      "inputs": [
        {
          "indexed": false,
          "internalType": "uint256",
          "name": "SongID",
          "type": "uint256"
        }
      ],
      "name": "songAdded",
      "type": "event"
    },
    {
      "inputs": [],
      "name": "SongID",
      "outputs": [
        {
          "internalType": "uint256",
          "name": "",
          "type": "uint256"
        }
      ],
      "stateMutability": "view",
      "type": "function"
    },
    {
      "inputs": [
        {
          "internalType": "uint256",
          "name": "",
          "type": "uint256"
        }
      ],
      "name": "Songs",
      "outputs": [
        {
          "internalType": "string",
          "name": "hash",
          "type": "string"
        },
        {
          "internalType": "uint256",
          "name": "SongID",
          "type": "uint256"
        }
      ],
      "stateMutability": "view",
      "type": "function"
    },
    {
      "inputs": [],
      "name": "UserID",
      "outputs": [
        {
          "internalType": "uint256",
          "name": "",
          "type": "uint256"
        }
      ],
      "stateMutability": "view",
      "type": "function"
    },
    {
      "inputs": [
        {
          "internalType": "uint256",
          "name": "",
          "type": "uint256"
        }
      ],
      "name": "UserIDs",
      "outputs": [
        {
          "internalType": "address",
          "name": "",
          "type": "address"
        }
      ],
      "stateMutability": "view",
      "type": "function"
    },
    {
      "inputs": [
        {
          "internalType": "address",
          "name": "",
          "type": "address"
        }
      ],
      "name": "Users",
      "outputs": [
        {
          "internalType": "string",
          "name": "name",
          "type": "string"
        },
        {
          "internalType": "uint256",
          "name": "UserId",
          "type": "uint256"
        }
      ],
      "stateMutability": "view",
      "type": "function"
    },
    {
      "inputs": [
        {
          "internalType": "address",
          "name": "",
          "type": "address"
        },
        {
          "internalType": "string",
          "name": "",
          "type": "string"
        }
      ],
      "name": "nested",
      "outputs": [
        {
          "internalType": "bool",
          "name": "",
          "type": "bool"
        }
      ],
      "stateMutability": "view",
      "type": "function"
    },
    {
      "inputs": [],
      "name": "owner",
      "outputs": [
        {
          "internalType": "address",
          "name": "",
          "type": "address"
        }
      ],
      "stateMutability": "view",
      "type": "function"
    },
    {
      "inputs": [],
      "name": "renounceOwnership",
      "outputs": [],
      "stateMutability": "nonpayable",
      "type": "function"
    },
    {
      "inputs": [
        {
          "internalType": "string",
          "name": "SongID1",
          "type": "string"
        }
      ],
      "name": "verifySong1",
      "outputs": [
        {
          "internalType": "bool",
          "name": "",
          "type": "bool"
        }
      ],
      "stateMutability": "view",
      "type": "function"
    },
    {
      "inputs": [
        {
          "internalType": "string",
          "name": "SongID1",
          "type": "string"
        }
      ],
      "name": "addSong1",
      "outputs": [],
      "stateMutability": "payable",
      "type": "function"
    },
    {
      "inputs": [
        {
          "internalType": "address",
          "name": "_addr",
          "type": "address"
        },
        {
          "internalType": "string",
          "name": "SongID1",
          "type": "string"
        }
      ],
      "name": "remove",
      "outputs": [],
      "stateMutability": "nonpayable",
      "type": "function"
    },
    {
      "inputs": [
        {
          "internalType": "string",
          "name": "_name",
          "type": "string"
        }
      ],
      "name": "addUser",
      "outputs": [],
      "stateMutability": "nonpayable",
      "type": "function"
    },
    {
      "inputs": [
        {
          "internalType": "string",
          "name": "_hash",
          "type": "string"
        }
      ],
      "name": "addSong",
      "outputs": [
        {
          "internalType": "uint256",
          "name": "",
          "type": "uint256"
        }
      ],
      "stateMutability": "payable",
      "type": "function"
    },
    {
      "inputs": [
        {
          "internalType": "string",
          "name": "_hash",
          "type": "string"
        },
        {
          "internalType": "uint256",
          "name": "_userID",
          "type": "uint256"
        }
      ],
      "name": "verifySong",
      "outputs": [],
      "stateMutability": "nonpayable",
      "type": "function"
    }
  ],
  "bytecode": "0x608060405234801561001057600080fd5b50336000806101000a81548173ffffffffffffffffffffffffffffffffffffffff021916908373ffffffffffffffffffffffffffffffffffffffff160217905550611122806100606000396000f3fe6080604052600436106100dd5760003560e01c80638da5cb5b1161007f578063beaf69b511610059578063beaf69b5146106f6578063c96db717146107b1578063cbf2fe3e14610883578063ff18bcb2146108ae576100dd565b80638da5cb5b146105b957806399b956a0146105fa5780639aadee02146106cb576100dd565b80635461c21d116100bb5780635461c21d146102f7578063715018a6146103f5578063718a57081461040c5780637f590f5e146104ea576100dd565b806318b8275a146100e25780632dc7e901146101aa57806349209fc81461020f575b600080fd5b3480156100ee57600080fd5b506101a86004803603602081101561010557600080fd5b810190808035906020019064010000000081111561012257600080fd5b82018360208201111561013457600080fd5b8035906020019184600183028401116401000000008311171561015657600080fd5b91908080601f016020809104026020016040519081016040528093929190818152602001838380828437600081840152601f19601f820116905080830192505050505050509192919290505050610969565b005b3480156101b657600080fd5b506101e3600480360360208110156101cd57600080fd5b8101908080359060200190929190505050610a28565b604051808273ffffffffffffffffffffffffffffffffffffffff16815260200191505060405180910390f35b34801561021b57600080fd5b506102f56004803603604081101561023257600080fd5b81019080803573ffffffffffffffffffffffffffffffffffffffff1690602001909291908035906020019064010000000081111561026f57600080fd5b82018360208201111561028157600080fd5b803590602001918460018302840111640100000000831117156102a357600080fd5b91908080601f016020809104026020016040519081016040528093929190818152602001838380828437600081840152601f19601f820116905080830192505050505050509192919290505050610a5b565b005b34801561030357600080fd5b506103dd6004803603604081101561031a57600080fd5b81019080803573ffffffffffffffffffffffffffffffffffffffff1690602001909291908035906020019064010000000081111561035757600080fd5b82018360208201111561036957600080fd5b8035906020019184600183028401116401000000008311171561038b57600080fd5b91908080601f016020809104026020016040519081016040528093929190818152602001838380828437600081840152601f19601f820116905080830192505050505050509192919290505050610b15565b60405180821515815260200191505060405180910390f35b34801561040157600080fd5b5061040a610b5a565b005b34801561041857600080fd5b506104d26004803603602081101561042f57600080fd5b810190808035906020019064010000000081111561044c57600080fd5b82018360208201111561045e57600080fd5b8035906020019184600183028401116401000000008311171561048057600080fd5b91908080601f016020809104026020016040519081016040528093929190818152602001838380828437600081840152601f19601f820116905080830192505050505050509192919290505050610c1d565b60405180821515815260200191505060405180910390f35b6105a36004803603602081101561050057600080fd5b810190808035906020019064010000000081111561051d57600080fd5b82018360208201111561052f57600080fd5b8035906020019184600183028401116401000000008311171561055157600080fd5b91908080601f016020809104026020016040519081016040528093929190818152602001838380828437600081840152601f19601f820116905080830192505050505050509192919290505050610cdf565b6040518082815260200191505060405180910390f35b3480156105c557600080fd5b506105ce610d61565b604051808273ffffffffffffffffffffffffffffffffffffffff16815260200191505060405180910390f35b34801561060657600080fd5b506106496004803603602081101561061d57600080fd5b81019080803573ffffffffffffffffffffffffffffffffffffffff169060200190929190505050610d85565b6040518080602001838152602001828103825284818151815260200191508051906020019080838360005b8381101561068f578082015181840152602081019050610674565b50505050905090810190601f1680156106bc5780820380516001836020036101000a031916815260200191505b50935050505060405180910390f35b3480156106d757600080fd5b506106e0610e41565b6040518082815260200191505060405180910390f35b34801561070257600080fd5b5061072f6004803603602081101561071957600080fd5b8101908080359060200190929190505050610e47565b6040518080602001838152602001828103825284818151815260200191508051906020019080838360005b8381101561077557808201518184015260208101905061075a565b50505050905090810190601f1680156107a25780820380516001836020036101000a031916815260200191505b50935050505060405180910390f35b3480156107bd57600080fd5b50610881600480360360408110156107d457600080fd5b81019080803590602001906401000000008111156107f157600080fd5b82018360208201111561080357600080fd5b8035906020019184600183028401116401000000008311171561082557600080fd5b91908080601f016020809104026020016040519081016040528093929190818152602001838380828437600081840152601f19601f82011690508083019250505050505050919291929080359060200190929190505050610f03565b005b34801561088f57600080fd5b50610898610f7b565b6040518082815260200191505060405180910390f35b610967600480360360208110156108c457600080fd5b81019080803590602001906401000000008111156108e157600080fd5b8201836020820111156108f357600080fd5b8035906020019184600183028401116401000000008311171561091557600080fd5b91908080601f016020809104026020016040519081016040528093929190818152602001838380828437600081840152601f19601f820116905080830192505050505050509192919290505050610f81565b005b600160026000828254019250508190555080600360003373ffffffffffffffffffffffffffffffffffffffff1673ffffffffffffffffffffffffffffffffffffffff16815260200190815260200160002060000190805190602001906109d092919061104f565b503360046000600254815260200190815260200160002060006101000a81548173ffffffffffffffffffffffffffffffffffffffff021916908373ffffffffffffffffffffffffffffffffffffffff16021790555050565b60046020528060005260406000206000915054906101000a900473ffffffffffffffffffffffffffffffffffffffff1681565b600660008373ffffffffffffffffffffffffffffffffffffffff1673ffffffffffffffffffffffffffffffffffffffff168152602001908152602001600020816040518082805190602001908083835b60208310610ace5780518252602082019150602081019050602083039250610aab565b6001836020036101000a038019825116818451168082178552505050505050905001915050908152602001604051809103902060006101000a81549060ff02191690555050565b6006602052816000526040600020818051602081018201805184825260208301602085012081835280955050505050506000915091509054906101000a900460ff1681565b60008054906101000a900473ffffffffffffffffffffffffffffffffffffffff1673ffffffffffffffffffffffffffffffffffffffff163373ffffffffffffffffffffffffffffffffffffffff1614610c1b576040517f08c379a00000000000000000000000000000000000000000000000000000000081526004018080602001828103825260098152602001807f4e6f74206f776e6572000000000000000000000000000000000000000000000081525060200191505060405180910390fd5b565b600080339050600660008273ffffffffffffffffffffffffffffffffffffffff1673ffffffffffffffffffffffffffffffffffffffff168152602001908152602001600020836040518082805190602001908083835b60208310610c965780518252602082019150602081019050602083039250610c73565b6001836020036101000a038019825116818451168082178552505050505050905001915050908152602001604051809103902060009054906101000a900460ff16915050919050565b600060018060008282540192505081905550816005600060015481526020019081526020016000206000019080519060200190610d1d92919061104f565b507fc50146df3744254d2c4df384a8513863cda206482d8bf1740acc2caeb38c3e776001546040518082815260200191505060405180910390a16001549050919050565b60008054906101000a900473ffffffffffffffffffffffffffffffffffffffff1681565b6003602052806000526040600020600091509050806000018054600181600116156101000203166002900480601f016020809104026020016040519081016040528092919081815260200182805460018160011615610100020316600290048015610e315780601f10610e0657610100808354040283529160200191610e31565b820191906000526020600020905b815481529060010190602001808311610e1457829003601f168201915b5050505050908060010154905082565b60025481565b6005602052806000526040600020600091509050806000018054600181600116156101000203166002900480601f016020809104026020016040519081016040528092919081815260200182805460018160011615610100020316600290048015610ef35780601f10610ec857610100808354040283529160200191610ef3565b820191906000526020600020905b815481529060010190602001808311610ed657829003601f168201915b5050505050908060010154905082565b80600360003373ffffffffffffffffffffffffffffffffffffffff1673ffffffffffffffffffffffffffffffffffffffff16815260200190815260200160002060010181905550816005600060015481526020019081526020016000206000019080519060200190610f7692919061104f565b505050565b60015481565b600060019050600033905081600660008373ffffffffffffffffffffffffffffffffffffffff1673ffffffffffffffffffffffffffffffffffffffff168152602001908152602001600020846040518082805190602001908083835b602083106110005780518252602082019150602081019050602083039250610fdd565b6001836020036101000a038019825116818451168082178552505050505050905001915050908152602001604051809103902060006101000a81548160ff021916908315150217905550505050565b828054600181600116156101000203166002900490600052602060002090601f016020900481019282601f1061109057805160ff19168380011785556110be565b828001600101855582156110be579182015b828111156110bd5782518255916020019190600101906110a2565b5b5090506110cb91906110cf565b5090565b5b808211156110e85760008160009055506001016110d0565b509056fea26469706673582212200e457e50d5679b4a06b73cce0908997305d2632f406f51ea8e9a1786c5a39a2264736f6c63430007000033",
  "immutableReferences": {},
  "source": "// SPDX-License-Identifier: MIT\n\npragma solidity 0.7.0;\n\n\nimport \"@openzeppelin/contracts/access/Ownable.sol\";\n\n\n/// @title A system that stores and verifies an a songwriter's work.\n/// @author Tanner Davis \n/// @notice This is not the most practical way of achieving the goal set in the README.md. \n/// @notice I plan to implent filecoin or NFTs to make it gas efficient and more straightforward.\n\ncontract SongBook {\n    \n    address public owner;\n\n\n    constructor() {\n        owner = msg.sender;\n    }\n\n\n    modifier onlyOwner() {\n      require(msg.sender == owner, \"Not owner\");\n        \n        _;\n    }\n/// @notice An extra layer of proof that no one can alter the contract.\n   function renounceOwnership() public onlyOwner {\n   }\n    \n     uint public SongID;\n     uint public UserID;\n    \n    \n    event songAdded(uint SongID);\n\n    \n    struct song {\n        string hash;\n        uint SongID;\n    }\n\n\n\n  struct user {\n        string name;\n        uint UserId;\n    }\n    \n    \n  mapping(address => user) public Users;\n  \n  mapping(uint => address) public UserIDs;\n  \n  mapping(uint => song) public Songs;\n  \n  \nmapping(address => mapping(string => bool)) public nested;\n\nfunction verifySong1(string memory SongID1) public view returns (bool) {\n\n        address _addr;\n\n        _addr = msg.sender;\n\n        return nested[_addr][SongID1];\n    }\n\n    function addSong1(\n        string memory SongID1) public payable {  \n        bool _boo;\n        _boo = true;\n        address _addr;\n        _addr = msg.sender;\n\n     nested[_addr][SongID1] = _boo;\n    }\n\n    function remove(address _addr, string memory SongID1) public {\n        delete nested[_addr][SongID1];\n    }\n\n/// @notice   Adds a new member to the contract. \n/// @notice   Referenced in the verifySongfunction.\n  function addUser(string memory _name) public {\n        UserID += 1;\n        Users[msg.sender].name = _name;\n        UserIDs[UserID] = msg.sender;\n    }\n    \n\n/// @notice Allows user to log a song to the contract\n/// @notice via a hash of their audio file.\n  function addSong(string memory _hash) public payable returns (uint) {\n        SongID += 1;\n        Songs[SongID].hash = _hash;\n        emit songAdded(SongID);\n        return SongID;\n    }\n\n\n/// @notice Demonstrates that the file hash and user match.\n   function verifySong(string memory _hash, uint _userID) public {\n      Users[msg.sender].UserId = _userID;\n      Songs[SongID].hash = _hash;\n  }\n    \n}\n",
  "sourcePath": "/Users/tannerdavis/GitHub/blockchain-developer-bootcamp-final-project/contracts/SongBook.sol",
  "compiler": {
    "name": "solc",
    "version": "0.7.0+commit.9e61f92b.Emscripten.clang"
  },
  "schemaVersion": "3.4.3",
  "updatedAt": "2021-11-25T16:29:57.204Z",
  "devdoc": {
    "author": "Tanner Davis ",
    "kind": "dev",
    "methods": {},
    "title": "A system that stores and verifies an a songwriter's work.",
    "version": 1
  },
  "userdoc": {
    "kind": "user",
    "methods": {
      "addSong(string)": {
        "notice": "Allows user to log a song to the contractvia a hash of their audio file."
      },
      "addUser(string)": {
        "notice": "Adds a new member to the contract. Referenced in the verifySongfunction."
      },
      "renounceOwnership()": {
        "notice": "An extra layer of proof that no one can alter the contract."
      },
      "verifySong(string,uint256)": {
        "notice": "Demonstrates that the file hash and user match."
      }
    },
    "notice": "This is not the most practical way of achieving the goal set in the README.md. I plan to implent filecoin or NFTs to make it gas efficient and more straightforward.",
    "version": 1
  }
}